:030000000203B642
:10000300C0E0C0D0C000E4F530F531F5327810E53A
:1000130034A2E7E53333F533E53433F534E53035EE
:1000230030D4F530E5313531D4F531E5323532D4DC
:10003300F532D8DBD000D0D0D0E02213C0D030E7E7
:100043000224D030E30224FDD0D022C0E0C0D0C0CF
:1000530000C030C031C0327810C3E53212003EF523
:1000630032E53112003EF531E53012003EF530E560
:100073003413F534E53313F533D8DED032D031D031
:1000830030D000D0D0D0E022C0E0C0D0E533253559
:10009300F533E5343536F534D0D0D0E022C0E0C0B6
:1000A300D0C3E5339535F533E5349536F534D0D003
:1000B300D0E022C0E0C0D0C3E5339535E5349536B2
:1000C3009200D0D0D0E022C0E0C0D0C3E535953354
:1000D300E53695349200D0D0D0E022C0E0C0D0C243
:1000E30000C3E53595337008E53695347002D200C8
:1000F300D0D0D0E0221200DE2000030200CA221278
:1001030000DE2000030200B622C0E0C0F0C0D0C071
:1001130000C001E5338535F0A4F8A9F0E534853551
:10012300F0A429F9E435F0FAE5338536F0A429F98A
:1001330089348833D001D000D0D0D0F0D0E022C0B1
:10014300E0C0F0C0D0C000C001C002C00378807A14
:10015300087B00EB48FBF5F0A4C39533F9E5F09574
:100163003449600D50028004E8F45BFBE803F8DADD
:10017300E28B33753400D003D002D001D000D0D04D
:10018300D0F0D0E022C0E0C0D0C000C001C0027AED
:1001930010E4F8F9C3E53333F533E53433F534E8E4
:1001A30033F8E933F9C3E89535E99536400BE8951B
:1001B30035F8E99536F9433301DAD9D002D001D0C5
:1001C30000D0D0D0E02285333585343622E533C5DF
:0A01D30035F533E534C536F5342266
:1001DD00C0F9A4B0999282F880908883C6A1868ECA
:1001ED00407924301912027800109001DDE5305469
:1001FD000F93F591E530C4540F93F592E531540FFB
:10020D0093F593E531C4540F93F594E532540F9360
:10021D00F58E229001EDE532540F93F58EE531C444
:10022D00540F93F594E531540F93F593E530C45481
:10023D000F93F592E530540F93F591227804C3E5B1
:10024D003033F530E53133F531E53233F532D8EE73
:10025D00EF4530F530E532540FF53222781E794AEC
:10026D007AFADAFED9FAD8F622ACE8AD95EC4D6003
:10027D0029120269E5E8C39C7020E595C39D701AAB
:10028D007F10C3EC33FCED33FD4004DFF5800B1F15
:10029D00D3E5E870FCE59570FC22C32275973075A7
:1002AD009630758F24758E19759412759379759294
:1002BD00247591787B28120269DBFB75977F759603
:1002CD007F758F7F758E7F75947F75937F75927F08
:1002DD0075917F2230F91D30FB3630FA3DE59E5485
:1002ED00027041E59E540170452212004E1201C963
:1002FD0012039F2212034D741055377055742055FB
:10030D0037705F744055377069748055377073223C
:10031D001202F7120349753710221202F712034524
:10032D00753720221202F71203517537402212023F
:10033D00F71203587537802230FAFD2230FBFD226B
:10034D0030F9FD22E59E540270FA22E59E540170AB
:10035D00FA2212004E1201D012008B12000312016C
:10036D00F72212004E1201D01200A012000312014A
:10037D00F72212004E1201D012010C1200031201CD
:10038D00F72212004E1201D0120188120003120141
:10039D00F722E4F530F531F53275914075924075DF
:1003AD009340759440758E402275817FE4F5E8F594
:1003BD0095F59EF5F8F530F531F5321202A91201D9
:1003CD00F71202E112027650F81202491201F702F9
:0203DD0003CE4D
:00000001FF
