:0300000002038177
:10000300C0E0C0D0C000E4F534F535F5367810E52E
:1000130031A2E7E53033F530E53133F531E53435F9
:1000230034D4F534E5353535D4F535E5363536D4C0
:10003300F536D8DBD000D0D0D0E02213C0D030E7E3
:100043000224D030E30224FDD0D022C0E0C0D0C0CF
:1000530000C034C035C0367810C3E53612003EF513
:1000630036E53512003EF535E53412003EF534E54C
:100073003113F531E53013F530D8DED036D035D035
:1000830034D000D0D0D0E022C0E0C0D0E53025325B
:10009300F530E5313533F531D0D0D0E022C0E0C0C2
:1000A300D0C3E5309532F530E5319533F531D0D015
:1000B300D0E022C0E0C0D0C3E5309532E5319533BE
:1000C3009200D0D0D0E022C0E0C0D0C3E53295305A
:1000D300E53395319200D0D0D0E022C0E0C0D0C249
:1000E30000C3E53295307008E53395317002D200D4
:1000F300D0D0D0E0221200DE2000030200CA221278
:1001030000DE2000030200B622C0E0C0F0C0D0C071
:1001130000C001E5308532F0A4F8A9F0E53185325D
:10012300F0A429F9E435F0FAE5308533F0A429F990
:1001330089318830D001D000D0D0D0F0D0E022C0B7
:10014300E0C0F0C0D0C000C001C002C00378807A14
:10015300087B00EB48FBF5F0A4C39530F9E5F09577
:100163003149600D50028004E8F45BFBE803F8DAE0
:10017300E28B30753100D003D002D001D000D0D053
:10018300D0F0D0E022C0E0C0D0C000C001C0027AED
:1001930010E4F8F9C3E53033F530E53133F531E8F0
:1001A30033F8E933F9C3E89532E99533400BE89521
:1001B30032F8E99533F9433001DAD9D002D001D0CE
:1001C30000D0D0D0E02285303285313322E530C5EE
:0A01D30032F530E531C533F5312275
:1001DD00C0F9A4B0999282F880908883C6A1868ECA
:1001ED004079243019120278001075977F75967F2B
:1001FD00758F7F9001DDE534540F93F591E534C48F
:10020D00540F93F592E535540F93F593E535C4549A
:10021D000F93F594E536540F93F58E227804C3E5CC
:10022D003433F534E53533F535E53633F536D8EE7B
:10023D00EF4534F534E536540FF53622781E794AFC
:10024D007AFADAFED9FAD8F622ACE8AD95EC4D6023
:10025D0029120249E5E8C39C7020E595C39D701AEB
:10026D007F10C3EC33FCED33FD4004DFF5800B1F35
:10027D00D3E5E870FCE59570FC22C32275973075C7
:10028D009640758F12758E1275944075937975928F
:10029D00247591307B28120249DBFB2230F9FD22B7
:1002AD0030FAFD2230FBFD22E59E540270FA22E564
:1002BD009E540170FA2230FB3C30FA4330F91AE5B6
:1002CD009E54027044E59E540170482212004E1255
:1002DD0001C912036A1201F7221202A974015537DE
:1002ED00703B74025537704574045537704F740860
:1002FD0055377059221202D91202B17537012212E7
:10030D0002D91202AD753702221202D91202B57549
:10031D003704221202D91202BC7537082212004E80
:10032D001201D012008B1200031201F72212004E9F
:10033D001201D01200A01200031201F72212004E7A
:10034D001201D012010C1200031201F72212004EFD
:10035D001201D01201881200031201F722E4F534C4
:10036D00F535F5367591407592407593407594400D
:10037D00758E402275817FE4F5E8F595F59EF5F8CB
:10038D00F534F535F5361202891201F71202C31252
:0D039D00025650F81202291201F7020399CE
:00000001FF
