:03000000020102F8
:0A000300C0F9A4B0999282F8809031
:10000D007E007AB479FA78FAD8FED9FA308D100ECE
:10001D00C28D12002FC28C758A00758C00D28CDABD
:10002D00E322C28C74F055894405F58922C0E0C0E5
:10003D00D0C000E4F530F531F532F5337818E535FB
:10004D00A2E7E53433F534E53533F535E53633F5EB
:10005D0036E5303530D4F530E5313531D4F531E58F
:10006D00323532D4F532E5333533D4F533D8CFD0FC
:10007D0000D0D0D0E022900003E530540F93F591DD
:10008D00E530C4540F93F592E531540F93F593E594
:10009D0031C4540F93F594E532540F93F58EE53238
:1000AD00C4540F93F58FE533540F93F596E533C490
:1000BD00540F93F59722C0E0C0D0E5342537F534C1
:1000CD00E5353538F535E5363539F536D0D0D0E06E
:1000DD0022EE60207534FF7535FF7536007537FFDC
:1000ED007538FF7539001200C3DEF2858C38858AAC
:1000FD00371200C32275817F75E800759500759ED6
:10010D000075F800D2B412002FC28C758A00758C60
:10011D0000D28C12000DC28C11DE12003A12008337
:10012D0012003A1200838534F88535E885369580BE
:01013D00FEC3
:00000001FF
