:03000000020CA44B
:100003001930303030303030303030303030303004
:1000130030303030303030303030303030303030DD
:1000230030303030303030303030303030303030CD
:1000330030303030303030303030303030303030BD
:1000430030303030303030303030242424242424F5
:10005300242424242424242424242424242424245D
:10006300242424242424242424242424242424244D
:10007300242424242424242424242424242424243D
:10008300242424242424242424242424242424242D
:1000930024242479797979797979797979797979CC
:1000A30079797979797979797979797979797979BD
:1000B30079797979797979797979797979797979AD
:1000C300797979797979797979797979797979799D
:1000D3007979797979797979797979794040404071
:1000E300404040404040404040404040404040400D
:1000F30040404040404040404040404040404040FD
:1001030040404040404040404040404040404040EC
:1001130040404040404040404040404040404040DC
:1001230040404040404040404040404040404040CC
:1001330040404040404040404040404040404040BC
:1001430040404040404040404040404040404040AC
:10015300404040404040404040404040404040409C
:100163004040404040404040404040404040407953
:1001730079797979797979797979797979797979EC
:1001830079797979797979797979797979797979DC
:1001930079797979797979797979797979797979CC
:1001A30079797979797979797979797979797979BC
:1001B3007979797979797979242424242424242454
:1001C30024242424242424242424242424242424EC
:1001D30024242424242424242424242424242424DC
:1001E30024242424242424242424242424242424CC
:1001F30024242424242424242424242424242424BC
:1002030024303030303030303030303030303030F7
:1002130030303030303030303030303030303030DB
:1002230030303030303030303030303030303030CB
:1002330030303030303030303030303030303030BB
:100243003030303030303030303019191919191935
:10025300191919191919191919191919191919190B
:1002630019191919191919191919191919191919FB
:1002730019191919191919191919191919191919EB
:1002830019191919191919191919191919191919DB
:10029300191919191212121212121212121212121F
:1002A300121212121212121212121212121212122B
:1002B300121212121212121212121212121212121B
:1002C300121212121212121212121212121212120B
:1002D300121212121212121212121212120202022B
:1002E30002020202020202020202020202020202EB
:1002F30002020202020202020202020202020202DB
:1003030002020202020202020202020202020202CA
:1003130002020202020202020202020202020202BA
:10032300020202020202787878787878787878780E
:10033300787878787878787878787878787878783A
:10034300787878787878787878787878787878782A
:10035300787878787878787878787878787878781A
:100363007878787878787878787878787878780082
:10037300000000000000000000000000000000007A
:10038300000000000000000000000000000000006A
:10039300000000000000000000000000000000005A
:1003A300000000000000000000000000000000004A
:1003B30000000000000000000010101010101010CA
:1003C300101010101010101010101010101010102A
:1003D300101010101010101010101010101010101A
:1003E300101010101010101010101010101010100A
:1003F30010101010101010101010101010101010FA
:1004030040101010101010100000000000000078C1
:1004130078787878787802020202020202021212D5
:100423001212121212191919191919193030303000
:1004330030303030242424242424247979797979A0
:100443007979404040404040404010101010101057
:1004530010000000000000007878787878787878C9
:1004630002020202020202121212121212121919CB
:100473001919191919193030303030303024242427
:100483002424242479797979797979794040404011
:100493004040401010101010101000000000000029
:1004A30000007878787878787802020202020202F3
:1004B30012121212121212121919191919191930CA
:1004C30030303030303024242424242424247979F7
:1004D30079797979794040404040404010101010BC
:1004E3001010101000000000000000787878787871
:1004F300787802020202020202121212121212127D
:1005030012191919191919193030303030303024B3
:10051300242424242424247979797979797940400D
:10052300404040404040404040404040407979791D
:1005330079797979242424242424243030303030E8
:1005430030303019191919191919121212121212FD
:10055300120202020202020202787878787878782E
:1005630000000000000000101010101010101040C8
:10057300404040404040797979797979792424243D
:100583002424242424303030303030301919191900
:100593001919191212121212121212020202020273
:1005A30002027878787878787800000000000000FC
:1005B300001010101010101040404040404040798F
:1005C300797979797979792424242424242430307D
:1005D300303030303019191919191919191212122A
:1005E300121212120202020202020278787878785A
:1005F30078780000000000000000101010101010A8
:10060300104040404040404079797979797979794F
:100613002424242424242430303030303030191959
:1006230019191919191912121212121212020202AD
:1006330002020202787878787878787800000000EF
:1006430000000010101010101010404040404040B7
:1006530040407979797979797924242424242424CC
:100663003030303030303030191919191919191246
:10067300121212121212020202020202020278780B
:1006830078787878780000000000000010101010CF
:1006930010101010404040404040407979797979FA
:1006A3007979242424242424242430303030303015
:1006B30030191919191919191212121212121212C8
:1006C30002020202020202787878787878780000D1
:1006D30000000000001010101010101010404040D7
:1006E3004040404079797979797979242424242404
:1006F30024242430303030303030191919191919A5
:10070300191212121212121212020202020202022F
:10071300787878787878780000000000000000107E
:10072300101010101010404040404040407979793B
:10073300797979797924242424242424303030309D
:1007430030303019191919191919191212121212F4
:10075300121202020202020202787878787878781C
:10076300780000000000000010101010101010405E
:10077300404040404040407979797979797924241F
:1007830024242424243030303030303030191919E7
:10079300191919191212121212121202020202026A
:1007A30002020278787878787878000000000000F8
:1007B30000101010101010101040404040404040F6
:1007C300797979797979792424242424242430307B
:1007D3003030303030301919191919191912121211
:1007E30012121212020202020202020278787878CE
:1007F300787878000000000000001010101010102E
:10080300401078021230244010000212192479108B
:100813000078121930791010780219302440100032
:100823000212192479100078121930791010780205
:10083300193024401000021219247910007812197B
:10084300307910107802193024401000021230243D
:100853007910007812193079100078021930244089
:100863001000021230247910007812193079100028
:1008730078021930244010000212302479100078D5
:1008830012192479100078021930244010780212CA
:100893003024791000781219247910007802193065
:1008A300244010780212302479100002121924799E
:1008B3001000780219307940107802123024791030
:1008C3000002121924791000780219307940107847
:1008D30002123024791000021219247910007812C0
:1008E3001930794010780212302440100002121996
:1008F30024791000781219307910107802123024FC
:10090300401000021219247910007812193079105E
:1009130010780219302440100002121924791000B3
:100923007812193079407930190278001079241936
:100933001202001079243012027810402430190278
:100943007800107924191278001079243012027873
:1009530010402430190278001079241912780010FD
:10096300792430120278104024301902780010796B
:10097300301912780010792430120200104024300C
:100983001902780010793019127800107924301286
:1009930002001040243019027810107930191278AF
:1009A3000010792419120200104024301902781023
:1009B30010793019127800107924191202001040AE
:1009C3002430190278101079301912780010792424
:1009D30019120200104024301202781010793019D5
:1009E30012780010792419120200104024301202E8
:1009F3007810407930191278001079241912020006
:100A030010792430120278104079301902780010DE
:100A130079241912020010792430120278104079D7
:100A230030190278001079241912780010792430D3
:100A33001202781040243019027800107924191218
:100A4300780010792430120278104024301902788B
:100A53000010792419127800107924301202001042
:100A63004024301902780010793019127800107977
:100A7300243012020010402430190278001079301B
:100A83001912780010792430120200104024301912
:100A93000278101079301912780010792419120293
:100AA30000104024301902781010793019127800A0
:100AB3001079241912020010402430120278101009
:100AC3007930191278001079241912020010402489
:100AD30030120278104079301912780010792419F5
:100AE30012020010402430120278104079301902AB
:100AF3007800107924191202001079243012027838
:100B0300104079301902780010792419120200106C
:100B13007924301202781040793019027800107964
:100B230024191278001079243012027810402430EE
:100B330019027800107924191278001079243012E0
:100B43000278104024301902780010793019127895
:100B5300001079243012020010402430190278006A
:100B630010793019127800107924301202001040E5
:100B73002430190278001079301912780010792482
:100B8300191202001040243019027810107930191C
:100B9300127800107924191202001040243019022F
:100BA3007810107930191278001079241912020084
:100BB3001040243012027810107930191278001086
:100BC300792419120200104024301202781040795F
:100BD3003019127800107924191202001079243088
:100BE3001202781040793019027800107924191212
:100BF30002001079243012027810407930190278FB
:100C0300781E794A7AFADAFED9FAD8F622AEE8AF34
:100C130095EF5403FFEEFCEFFD22C3EF9401500365
:100C2300020C3D7011020C2BC3EE94255003020CF1
:100C33003D7003020C3975947F2275943F22900016
:100C430003EE60051EA3EE70FBEF600A7EFF1FA399
:100C5300EF70F1EE70EEE493F593ECFEEDFF22906E
:100C63000403EE60051EA3EE70FBEF600A7EFF1F18
:100C7300A3EF70F1EE70EEE493F592ECFEEDFF223C
:100C8300900803EE60051EA3EE70FBEF600A7EFF83
:100C93001FA3EF70F1EE70EEE493F591ECFEEDFF20
:100CA3002275817FE4F5E8F595F59EF5F8911091AD
:090CB3001D91419162918380F4CE
:00000001FF
